:020000040800F2
:10000000D0040020D500000821060008A501000842
:1000100000000000000000000000000000000000E0
:10002000000000000000000000000000730700084E
:10003000000000000000000071070008C50700086C
:10004000000000000000000000000000E7000008C1
:10005000E7000008E7000008E7000008E7000008E4
:100060000000000000000000000000000000000090
:10007000E7000008E7000008E700000800000000B3
:1000800000000000E7000008000000000000000081
:1000900000000000E700000800000000E700000882
:1000A00000000000E700000800000000E700000872
:1000B0000000000000000000000000000000000040
:1000C0000348854600F034F8004800475501000811
:1000D000D00400200448804704480047FEE7FEE7BC
:1000E000FEE7FEE7FEE7FEE7CD070008C1000008D7
:1000F00070B50446002903D000202022012310E01F
:10010000002801D00020C043C046C0460DE025466F
:10011000D5408D4205D30D469540641B1D46954044
:1001200040191546521E002DF1DC214670BD00001D
:10013000064C0125064E05E0E36807CC2B430C3C3A
:1001400098471034B442F7D3FFF7BEFFA808000861
:10015000C808000880B582B00120C006009001A93F
:1001600000200870FFE701A800782F280DDCFFE7CA
:10017000009801A909788A00805809498850FFE74A
:100180000198401C01A90870EDE7012040070349D0
:10019000086000F039FB002002B080BD08ED00E0EF
:1001A00000000020FFE7FEE782B00190019A0548B9
:1001B00001681143016000680199084000900098AF
:1001C00002B070473C10024082B00190019A05488D
:1001D000016811430160006801990840009000988F
:1001E00002B070474010024080B584B00390029185
:1001F00003980521090788420AD0FFE70398984928
:10020000884205D0FFE703989649884201D1FFE76D
:1002100004E09548AA2100F0F1FAFFE7029800688F
:10022000002806D0FFE702984088002801D1FFE7A8
:1002300004E08D48AB2100F0E1FAFFE70298406846
:1002400000280FD0FFE70298406801280AD0FFE796
:1002500002984068022805D0FFE70298406803280A
:1002600001D1FFE704E08048AC2100F0C7FAFFE7C6
:100270000298006900280AD0FFE702980069012867
:1002800005D0FFE702980069022801D1FFE704E0EA
:100290007548AD2100F0B2FAFFE700200190FFE7BA
:1002A000029800680199C840002800D1B4E0029883
:1002B0000068019A012191400840009000980028B0
:1002C00000D1A5E003980099029A526800F0F5F871
:1002D00002984068012805D0FFE70298406802288C
:1002E00021D1FFE70298806800280FD0FFE702982D
:1002F000806801280AD0FFE702988068022805D0AC
:10030000FFE702988068032801D1FFE704E0564820
:10031000C12100F073FAFFE703980099029A9268EE
:1003200000F0FEF8FFE703980099029A126900F0C6
:10033000E5F802984068022869D1FFE70298406911
:1003400000284BD0FFE702984069012846D0FFE71C
:1003500002984069022841D0FFE7029840690328CB
:100360003CD0FFE702984069042837D0FFE70298A5
:100370004069052832D0FFE70298406906282DD051
:10038000FFE702984069072828D0FFE702984069F4
:10039000082823D0FFE70298406909281ED0FFE70C
:1003A000029840690A2819D0FFE7029840690B2893
:1003B00014D0FFE7029840690C280FD0FFE702989D
:1003C00040690D280AD0FFE7029840690E2805D041
:1003D000FFE7029840690F2801D1FFE704E02248B7
:1003E000CD2100F00BFAFFE70098FF2807D8FFE7C0
:1003F00003980099029A526900F038F806E00398D1
:100400000099029A526900F044F8FFE7FFE7FFE71E
:100410000198401C019043E702984068012805D0EC
:10042000FFE702984068022817D1FFE70298C068EA
:10043000002805D0FFE70298C068012801D1FFE736
:1004400004E00948E02100F0D9F9FFE70398029A97
:100450001168D26800F043F8FFE7012004B080BDC6
:1004600000040050001400507208000883B002908D
:10047000019100920298006A019A524352430F215F
:10048000514388430099514308430299086203B0DD
:10049000704783B00290019100920298406A0199DE
:1004A0000A0A524352430F21514388430099514352
:1004B00008430299486203B0704783B002900191EB
:1004C000009202980068019A5243032151438843E5
:1004D0000099514308430299086003B0704783B004
:1004E00002900191009202984068019A904300990D
:1004F000514308430299486003B0704783B00290AB
:10050000019100920298C068019A5243032151431D
:1005100088430099514308430299C86003B070476B
:1005200083B002900191009202988068019A524330
:10053000032151438843009951430843029988603D
:1005400003B0704782B00190009101984069009912
:1005500048400199486102B07047000082B00190A4
:10056000019A05480168114301600068019908403B
:100570000090009802B07047341002402348006891
:10058000382108407047C046074908680122120216
:10059000104308607047C046034800680121890283
:1005A0000840800A7047C0460010024081B00090A9
:1005B0008E4908688E4A1040009A1043086001B0C6
:1005C0007047C04681B00090104908680F2212029F
:1005D0009043009A1043086001B0704781B00090CA
:1005E0000A490868072212039043009A10430860E2
:1005F00001B0704781B00090044908680722904319
:10060000009A1043086001B07047C04608100240CD
:1006100081B0009000985549086001B07047C0460D
:100620007047000070B582B0024601A802700091C8
:100630000021405600281BD5FFE701A908780F24A8
:10064000204008380322D3431840164A805800251A
:1006500049578D07EE0EFF25B540A843009DAD011B
:10066000EDB2B5402843214008391940885015E0C3
:10067000002401A908570322D3431840084A805890
:1006800009578C07E50EFF24AC40A043009CA40151
:10069000E4B2AC40204319408850FFE702B070BD7F
:1006A00000E400E01CED00E00C490868401C086014
:1006B0007047C0467047000082B00190074800684C
:1006C0000090FFE7054800680099401A01998842A8
:1006D00001D2FFE7F6E702B07047C046C80000202D
:1006E00080B584B0012003900007FFF75DFD0398FB
:1006F000FFF76AFDFFF748FFFFE7FFF74DFF002810
:1007000001D1FFE7F9E716480068164908400121C2
:10071000C9034018FFF74AFF00200290FFF752FF7D
:100720000298FFF767FFFFE7FFF728FF002801D0D7
:10073000FFE7F9E700200190FFF750FF0A48FFF7B5
:1007400067FF0A4800687D21C900FFF7D1FC00F06F
:1007500011F80199C843FFF765FF04B080BDC0469A
:10076000100FFF1FFF1F000000366E01C0000020A9
:100770007047704780B584B002900298401E000E0A
:10078000002803D0FFE70120039011E00298401EEB
:100790000949086000200190C0430321FFF742FF90
:1007A000019806490860064A072111600390FFE797
:1007B000039804B080BDC04614E000E018E000E0FB
:1007C00010E000E080B5FFF76FFF80BD074A1168B9
:1007D00007480140074800680143012043031943CB
:1007E0001160C006044908607047C046041002400A
:1007F0000000FFFF040FFF1F08ED00E082B0019032
:100800000091FFE7FEE7000080B588B0002000906F
:100810000790FFF765FFFFF74DFF0220FFF79EFEF1
:100820000098012102910490082101910590032074
:100830000390074801A9FFF7D7FCFFE70448082108
:10084000FFF780FE7D20C000FFF736FFF6E7C046C9
:100850000004005002E008C8121F08C1002AFAD1A3
:1008600070477047002001E001C1121F002AFBD130
:1008700070472E2E2F447269766572732F5059334C
:1008800032463078785F48414C5F447269766572D1
:100890002F5372632F70793332663078785F6C6CC7
:1008A0005F6770696F2E6300C808000800000020B1
:1008B000C80000005408000890090008C800002083
:1008C00008040000640800080000000000000000A8
:1008D0000000000000000000000000000000000018
:1008E0000000000000000000000000000000000008
:1008F00000000000000000000000000000000000F8
:1009000000000000000000000000000000000000E7
:1009100000000000000000000000000000000000D7
:1009200000000000000000000000000000000000C7
:1009300000000000000000000000000000000000B7
:1009400000000000000000000000000000000000A7
:100950000000000000000000000000000000000097
:100960000000000000000000000000000000000087
:100970000000000000000000000000000000000077
:10098000000000000000000000127A0000000000DB
:04000005080000C12E
:00000001FF
